{
  "_format": "hh-sol-artifact-1",
  "contractName": "WavePortal",
  "sourceName": "contracts/WavePortal.sol",
  "abi": [
    {
      "inputs": [],
      "stateMutability": "nonpayable",
      "type": "constructor"
    },
    {
      "anonymous": false,
      "inputs": [
        {
          "indexed": true,
          "internalType": "address",
          "name": "from",
          "type": "address"
        },
        {
          "indexed": false,
          "internalType": "uint256",
          "name": "timestamp",
          "type": "uint256"
        },
        {
          "indexed": false,
          "internalType": "string",
          "name": "message",
          "type": "string"
        }
      ],
      "name": "NewWave",
      "type": "event"
    },
    {
      "inputs": [
        {
          "internalType": "address",
          "name": "_address",
          "type": "address"
        }
      ],
      "name": "getAdressWaves",
      "outputs": [
        {
          "internalType": "uint256",
          "name": "",
          "type": "uint256"
        }
      ],
      "stateMutability": "view",
      "type": "function"
    },
    {
      "inputs": [],
      "name": "getAllWaves",
      "outputs": [
        {
          "components": [
            {
              "internalType": "address",
              "name": "waver",
              "type": "address"
            },
            {
              "internalType": "string",
              "name": "message",
              "type": "string"
            },
            {
              "internalType": "uint256",
              "name": "timestamp",
              "type": "uint256"
            }
          ],
          "internalType": "struct WavePortal.Wave[]",
          "name": "",
          "type": "tuple[]"
        }
      ],
      "stateMutability": "view",
      "type": "function"
    },
    {
      "inputs": [],
      "name": "getTotalWaves",
      "outputs": [
        {
          "internalType": "uint256",
          "name": "",
          "type": "uint256"
        }
      ],
      "stateMutability": "view",
      "type": "function"
    },
    {
      "inputs": [
        {
          "internalType": "string",
          "name": "_message",
          "type": "string"
        }
      ],
      "name": "wave",
      "outputs": [],
      "stateMutability": "nonpayable",
      "type": "function"
    }
  ],
  "bytecode": "0x60806040523480156200001157600080fd5b506200005d6040518060400160405280601e81526020017f4920616d206120636f6e747261637420616e64204920616d20736d61727400008152506200006360201b620004ed1760201c565b620001f7565b62000103816040516024016200007a919062000170565b6040516020818303038152906040527f41304fac000000000000000000000000000000000000000000000000000000007bffffffffffffffffffffffffffffffffffffffffffffffffffffffff19166020820180517bffffffffffffffffffffffffffffffffffffffffffffffffffffffff83818316178352505050506200010660201b60201c565b50565b60008151905060006a636f6e736f6c652e6c6f679050602083016000808483855afa5050505050565b60006200013c8262000194565b6200014881856200019f565b93506200015a818560208601620001b0565b6200016581620001e6565b840191505092915050565b600060208201905081810360008301526200018c81846200012f565b905092915050565b600081519050919050565b600082825260208201905092915050565b60005b83811015620001d0578082015181840152602081019050620001b3565b83811115620001e0576000848401525b50505050565b6000601f19601f8301169050919050565b610ec780620002076000396000f3fe608060405234801561001057600080fd5b506004361061004c5760003560e01c80631121e73414610051578063449d46c0146100815780639a2cdc081461009d578063bd43a908146100bb575b600080fd5b61006b600480360381019061006691906108a6565b6100d9565b6040516100789190610b79565b60405180910390f35b61009b600480360381019061009691906108cf565b610184565b005b6100a5610351565b6040516100b29190610b79565b60405180910390f35b6100c361039c565b6040516100d09190610a97565b60405180910390f35b600061013d604051806060016040528060258152602001610e6d6025913983600160008673ffffffffffffffffffffffffffffffffffffffff1673ffffffffffffffffffffffffffffffffffffffff16815260200190815260200160002054610586565b600160008373ffffffffffffffffffffffffffffffffffffffff1673ffffffffffffffffffffffffffffffffffffffff168152602001908152602001600020549050919050565b60016000808282546101969190610c80565b9250508190555060018060003373ffffffffffffffffffffffffffffffffffffffff1673ffffffffffffffffffffffffffffffffffffffff16815260200190815260200160002060008282546101ec9190610c80565b925050819055506102326040518060400160405280600c81526020017f257320686173207761766564000000000000000000000000000000000000000081525033610625565b600260405180606001604052803373ffffffffffffffffffffffffffffffffffffffff16815260200183815260200142815250908060018154018082558091505060019003906000526020600020906003020160009091909190915060008201518160000160006101000a81548173ffffffffffffffffffffffffffffffffffffffff021916908373ffffffffffffffffffffffffffffffffffffffff16021790555060208201518160010190805190602001906102f1929190610786565b506040820151816002015550503373ffffffffffffffffffffffffffffffffffffffff167f5f7e16dc676677766a70e9c5628aa6c54ddb8b6e5188e2ae1e1f17f1ffbea7164283604051610346929190610b94565b60405180910390a250565b60006103946040518060400160405280601181526020017f57652068617665202564207761766573210000000000000000000000000000008152506000546106c1565b600054905090565b60606002805480602002602001604051908101604052809291908181526020016000905b828210156104e457838290600052602060002090600302016040518060600160405290816000820160009054906101000a900473ffffffffffffffffffffffffffffffffffffffff1673ffffffffffffffffffffffffffffffffffffffff1673ffffffffffffffffffffffffffffffffffffffff16815260200160018201805461044990610d54565b80601f016020809104026020016040519081016040528092919081815260200182805461047590610d54565b80156104c25780601f10610497576101008083540402835291602001916104c2565b820191906000526020600020905b8154815290600101906020018083116104a557829003601f168201915b50505050508152602001600282015481525050815260200190600101906103c0565b50505050905090565b610583816040516024016105019190610ab9565b6040516020818303038152906040527f41304fac000000000000000000000000000000000000000000000000000000007bffffffffffffffffffffffffffffffffffffffffffffffffffffffff19166020820180517bffffffffffffffffffffffffffffffffffffffffffffffffffffffff838183161783525050505061075d565b50565b61062083838360405160240161059e93929190610b0b565b6040516020818303038152906040527f07c81217000000000000000000000000000000000000000000000000000000007bffffffffffffffffffffffffffffffffffffffffffffffffffffffff19166020820180517bffffffffffffffffffffffffffffffffffffffffffffffffffffffff838183161783525050505061075d565b505050565b6106bd828260405160240161063b929190610adb565b6040516020818303038152906040527f319af333000000000000000000000000000000000000000000000000000000007bffffffffffffffffffffffffffffffffffffffffffffffffffffffff19166020820180517bffffffffffffffffffffffffffffffffffffffffffffffffffffffff838183161783525050505061075d565b5050565b61075982826040516024016106d7929190610b49565b6040516020818303038152906040527f9710a9d0000000000000000000000000000000000000000000000000000000007bffffffffffffffffffffffffffffffffffffffffffffffffffffffff19166020820180517bffffffffffffffffffffffffffffffffffffffffffffffffffffffff838183161783525050505061075d565b5050565b60008151905060006a636f6e736f6c652e6c6f679050602083016000808483855afa5050505050565b82805461079290610d54565b90600052602060002090601f0160209004810192826107b457600085556107fb565b82601f106107cd57805160ff19168380011785556107fb565b828001600101855582156107fb579182015b828111156107fa5782518255916020019190600101906107df565b5b509050610808919061080c565b5090565b5b8082111561082557600081600090555060010161080d565b5090565b600061083c61083784610be9565b610bc4565b90508281526020810184848401111561085457600080fd5b61085f848285610d12565b509392505050565b60008135905061087681610e55565b92915050565b600082601f83011261088d57600080fd5b813561089d848260208601610829565b91505092915050565b6000602082840312156108b857600080fd5b60006108c684828501610867565b91505092915050565b6000602082840312156108e157600080fd5b600082013567ffffffffffffffff8111156108fb57600080fd5b6109078482850161087c565b91505092915050565b600061091c8383610a29565b905092915050565b61092d81610cd6565b82525050565b61093c81610cd6565b82525050565b600061094d82610c2a565b6109578185610c4d565b93508360208202850161096985610c1a565b8060005b858110156109a557848403895281516109868582610910565b945061099183610c40565b925060208a0199505060018101905061096d565b50829750879550505050505092915050565b60006109c282610c35565b6109cc8185610c5e565b93506109dc818560208601610d21565b6109e581610e44565b840191505092915050565b60006109fb82610c35565b610a058185610c6f565b9350610a15818560208601610d21565b610a1e81610e44565b840191505092915050565b6000606083016000830151610a416000860182610924565b5060208301518482036020860152610a5982826109b7565b9150506040830151610a6e6040860182610a79565b508091505092915050565b610a8281610d08565b82525050565b610a9181610d08565b82525050565b60006020820190508181036000830152610ab18184610942565b905092915050565b60006020820190508181036000830152610ad381846109f0565b905092915050565b60006040820190508181036000830152610af581856109f0565b9050610b046020830184610933565b9392505050565b60006060820190508181036000830152610b2581866109f0565b9050610b346020830185610933565b610b416040830184610a88565b949350505050565b60006040820190508181036000830152610b6381856109f0565b9050610b726020830184610a88565b9392505050565b6000602082019050610b8e6000830184610a88565b92915050565b6000604082019050610ba96000830185610a88565b8181036020830152610bbb81846109f0565b90509392505050565b6000610bce610bdf565b9050610bda8282610d86565b919050565b6000604051905090565b600067ffffffffffffffff821115610c0457610c03610e15565b5b610c0d82610e44565b9050602081019050919050565b6000819050602082019050919050565b600081519050919050565b600081519050919050565b6000602082019050919050565b600082825260208201905092915050565b600082825260208201905092915050565b600082825260208201905092915050565b6000610c8b82610d08565b9150610c9683610d08565b9250827fffffffffffffffffffffffffffffffffffffffffffffffffffffffffffffffff03821115610ccb57610cca610db7565b5b828201905092915050565b6000610ce182610ce8565b9050919050565b600073ffffffffffffffffffffffffffffffffffffffff82169050919050565b6000819050919050565b82818337600083830152505050565b60005b83811015610d3f578082015181840152602081019050610d24565b83811115610d4e576000848401525b50505050565b60006002820490506001821680610d6c57607f821691505b60208210811415610d8057610d7f610de6565b5b50919050565b610d8f82610e44565b810181811067ffffffffffffffff82111715610dae57610dad610e15565b5b80604052505050565b7f4e487b7100000000000000000000000000000000000000000000000000000000600052601160045260246000fd5b7f4e487b7100000000000000000000000000000000000000000000000000000000600052602260045260246000fd5b7f4e487b7100000000000000000000000000000000000000000000000000000000600052604160045260246000fd5b6000601f19601f8301169050919050565b610e5e81610cd6565b8114610e6957600080fd5b5056fe746865206164647265737320257320686173202564206e756d626572206f66207761766573a264697066735822122022b677ef19cae98badafe1dc192248fd39a6b9ed22255ad64be06a84a6d1ee9b64736f6c63430008040033",
  "linkReferences": {},
  "deployedLinkReferences": {}
}