{
  "_format": "hh-sol-artifact-1",
  "contractName": "WavePortal",
  "sourceName": "contracts/WavePortal.sol",
  "abi": [
    {
      "inputs": [],
      "stateMutability": "payable",
      "type": "constructor"
    },
    {
      "anonymous": false,
      "inputs": [
        {
          "indexed": true,
          "internalType": "address",
          "name": "from",
          "type": "address"
        },
        {
          "indexed": false,
          "internalType": "uint256",
          "name": "timestamp",
          "type": "uint256"
        },
        {
          "indexed": false,
          "internalType": "string",
          "name": "message",
          "type": "string"
        },
        {
          "indexed": false,
          "internalType": "enum WavePortal.Winner",
          "name": "isWinner",
          "type": "uint8"
        }
      ],
      "name": "NewWave",
      "type": "event"
    },
    {
      "inputs": [
        {
          "internalType": "address",
          "name": "_address",
          "type": "address"
        }
      ],
      "name": "getAdressWaves",
      "outputs": [
        {
          "internalType": "uint256",
          "name": "",
          "type": "uint256"
        }
      ],
      "stateMutability": "view",
      "type": "function"
    },
    {
      "inputs": [],
      "name": "getAllWaves",
      "outputs": [
        {
          "components": [
            {
              "internalType": "address",
              "name": "waver",
              "type": "address"
            },
            {
              "internalType": "string",
              "name": "message",
              "type": "string"
            },
            {
              "internalType": "uint256",
              "name": "timestamp",
              "type": "uint256"
            },
            {
              "internalType": "enum WavePortal.Winner",
              "name": "isWinner",
              "type": "uint8"
            }
          ],
          "internalType": "struct WavePortal.Wave[]",
          "name": "",
          "type": "tuple[]"
        }
      ],
      "stateMutability": "view",
      "type": "function"
    },
    {
      "inputs": [],
      "name": "getTotalWaves",
      "outputs": [
        {
          "internalType": "uint256",
          "name": "",
          "type": "uint256"
        }
      ],
      "stateMutability": "view",
      "type": "function"
    },
    {
      "inputs": [
        {
          "internalType": "string",
          "name": "_message",
          "type": "string"
        }
      ],
      "name": "wave",
      "outputs": [],
      "stateMutability": "nonpayable",
      "type": "function"
    }
  ],
  "bytecode": "0x60806040526200004f6040518060400160405280601e81526020017f4920616d206120636f6e747261637420616e64204920616d20736d61727400008152506200007760201b620009091760201c565b606444426200005f9190620001c4565b6200006b919062000261565b60038190555062000308565b62000117816040516024016200008e919062000184565b6040516020818303038152906040527f41304fac000000000000000000000000000000000000000000000000000000007bffffffffffffffffffffffffffffffffffffffffffffffffffffffff19166020820180517bffffffffffffffffffffffffffffffffffffffffffffffffffffffff83818316178352505050506200011a60201b60201c565b50565b60008151905060006a636f6e736f6c652e6c6f679050602083016000808483855afa5050505050565b60006200015082620001a8565b6200015c8185620001b3565b93506200016e8185602086016200022b565b6200017981620002f7565b840191505092915050565b60006020820190508181036000830152620001a0818462000143565b905092915050565b600081519050919050565b600082825260208201905092915050565b6000620001d18262000221565b9150620001de8362000221565b9250827fffffffffffffffffffffffffffffffffffffffffffffffffffffffffffffffff0382111562000216576200021562000299565b5b828201905092915050565b6000819050919050565b60005b838110156200024b5780820151818401526020810190506200022e565b838111156200025b576000848401525b50505050565b60006200026e8262000221565b91506200027b8362000221565b9250826200028e576200028d620002c8565b5b828206905092915050565b7f4e487b7100000000000000000000000000000000000000000000000000000000600052601160045260246000fd5b7f4e487b7100000000000000000000000000000000000000000000000000000000600052601260045260246000fd5b6000601f19601f8301169050919050565b6115e680620003186000396000f3fe608060405234801561001057600080fd5b506004361061004c5760003560e01c80631121e73414610051578063449d46c0146100815780639a2cdc081461009d578063bd43a908146100bb575b600080fd5b61006b60048036038101906100669190610cc2565b6100d9565b60405161007891906110c7565b60405180910390f35b61009b60048036038101906100969190610ceb565b610184565b005b6100a56106e6565b6040516100b291906110c7565b60405180910390f35b6100c3610731565b6040516100d09190610f85565b60405180910390f35b600061013d60405180606001604052806025815260200161158c6025913983600160008673ffffffffffffffffffffffffffffffffffffffff1673ffffffffffffffffffffffffffffffffffffffff168152602001908152602001600020546109a2565b600160008373ffffffffffffffffffffffffffffffffffffffff1673ffffffffffffffffffffffffffffffffffffffff168152602001908152602001600020549050919050565b42601e600460003373ffffffffffffffffffffffffffffffffffffffff1673ffffffffffffffffffffffffffffffffffffffff168152602001908152602001600020546101d191906111e7565b10610211576040517f08c379a0000000000000000000000000000000000000000000000000000000008152600401610208906110a7565b60405180910390fd5b42600460003373ffffffffffffffffffffffffffffffffffffffff1673ffffffffffffffffffffffffffffffffffffffff16815260200190815260200160002081905550600160008082825461026791906111e7565b9250508190555060018060003373ffffffffffffffffffffffffffffffffffffffff1673ffffffffffffffffffffffffffffffffffffffff16815260200190815260200160002060008282546102bd91906111e7565b925050819055506103036040518060400160405280600c81526020017f257320686173207761766564000000000000000000000000000000000000000081525033610a41565b600060405180608001604052803373ffffffffffffffffffffffffffffffffffffffff16815260200183815260200142815260200160006001811115610372577f4e487b7100000000000000000000000000000000000000000000000000000000600052602160045260246000fd5b81525090506064600354424461038891906111e7565b61039291906111e7565b61039c9190611343565b6003819055506103e36040518060400160405280601681526020017f52616e646f6d20232067656e6572617465643a20256400000000000000000000815250600354610add565b60326003541161059a5761042c6040518060400160405280600781526020017f257320776f6e210000000000000000000000000000000000000000000000000081525033610a41565b6000655af3107a400090504781111561047a576040517f08c379a000000000000000000000000000000000000000000000000000000000815260040161047190611067565b60405180910390fd5b60003373ffffffffffffffffffffffffffffffffffffffff16826040516104a090610f70565b60006040518083038185875af1925050503d80600081146104dd576040519150601f19603f3d011682016040523d82523d6000602084013e6104e2565b606091505b5050905080610526576040517f08c379a000000000000000000000000000000000000000000000000000000000815260040161051d90611087565b60405180910390fd5b60405180608001604052803373ffffffffffffffffffffffffffffffffffffffff168152602001858152602001428152602001600180811115610592577f4e487b7100000000000000000000000000000000000000000000000000000000600052602160045260246000fd5b815250925050505b600281908060018154018082558091505060019003906000526020600020906004020160009091909190915060008201518160000160006101000a81548173ffffffffffffffffffffffffffffffffffffffff021916908373ffffffffffffffffffffffffffffffffffffffff1602179055506020820151816001019080519060200190610629929190610ba2565b506040820151816002015560608201518160030160006101000a81548160ff02191690836001811115610685577f4e487b7100000000000000000000000000000000000000000000000000000000600052602160045260246000fd5b021790555050503373ffffffffffffffffffffffffffffffffffffffff167fae4702a2feda9b920507be4cad8b12e46bfde4780ebe20d4adbb4f37e3714c9f428484606001516040516106da939291906110e2565b60405180910390a25050565b60006107296040518060400160405280601181526020017f5765206861766520256420776176657321000000000000000000000000000000815250600054610add565b600054905090565b60606002805480602002602001604051908101604052809291908181526020016000905b8282101561090057838290600052602060002090600402016040518060800160405290816000820160009054906101000a900473ffffffffffffffffffffffffffffffffffffffff1673ffffffffffffffffffffffffffffffffffffffff1673ffffffffffffffffffffffffffffffffffffffff1681526020016001820180546107de906112e0565b80601f016020809104026020016040519081016040528092919081815260200182805461080a906112e0565b80156108575780601f1061082c57610100808354040283529160200191610857565b820191906000526020600020905b81548152906001019060200180831161083a57829003601f168201915b50505050508152602001600282015481526020016003820160009054906101000a900460ff1660018111156108b5577f4e487b7100000000000000000000000000000000000000000000000000000000600052602160045260246000fd5b60018111156108ed577f4e487b7100000000000000000000000000000000000000000000000000000000600052602160045260246000fd5b8152505081526020019060010190610755565b50505050905090565b61099f8160405160240161091d9190610fa7565b6040516020818303038152906040527f41304fac000000000000000000000000000000000000000000000000000000007bffffffffffffffffffffffffffffffffffffffffffffffffffffffff19166020820180517bffffffffffffffffffffffffffffffffffffffffffffffffffffffff8381831617835250505050610b79565b50565b610a3c8383836040516024016109ba93929190610ff9565b6040516020818303038152906040527f07c81217000000000000000000000000000000000000000000000000000000007bffffffffffffffffffffffffffffffffffffffffffffffffffffffff19166020820180517bffffffffffffffffffffffffffffffffffffffffffffffffffffffff8381831617835250505050610b79565b505050565b610ad98282604051602401610a57929190610fc9565b6040516020818303038152906040527f319af333000000000000000000000000000000000000000000000000000000007bffffffffffffffffffffffffffffffffffffffffffffffffffffffff19166020820180517bffffffffffffffffffffffffffffffffffffffffffffffffffffffff8381831617835250505050610b79565b5050565b610b758282604051602401610af3929190611037565b6040516020818303038152906040527f9710a9d0000000000000000000000000000000000000000000000000000000007bffffffffffffffffffffffffffffffffffffffffffffffffffffffff19166020820180517bffffffffffffffffffffffffffffffffffffffffffffffffffffffff8381831617835250505050610b79565b5050565b60008151905060006a636f6e736f6c652e6c6f679050602083016000808483855afa5050505050565b828054610bae906112e0565b90600052602060002090601f016020900481019282610bd05760008555610c17565b82601f10610be957805160ff1916838001178555610c17565b82800160010185558215610c17579182015b82811115610c16578251825591602001919060010190610bfb565b5b509050610c249190610c28565b5090565b5b80821115610c41576000816000905550600101610c29565b5090565b6000610c58610c5384611145565b611120565b905082815260208101848484011115610c7057600080fd5b610c7b84828561129e565b509392505050565b600081359050610c9281611574565b92915050565b600082601f830112610ca957600080fd5b8135610cb9848260208601610c45565b91505092915050565b600060208284031215610cd457600080fd5b6000610ce284828501610c83565b91505092915050565b600060208284031215610cfd57600080fd5b600082013567ffffffffffffffff811115610d1757600080fd5b610d2384828501610c98565b91505092915050565b6000610d388383610eef565b905092915050565b610d498161123d565b82525050565b610d588161123d565b82525050565b6000610d6982611186565b610d7381856111a9565b935083602082028501610d8585611176565b8060005b85811015610dc15784840389528151610da28582610d2c565b9450610dad8361119c565b925060208a01995050600181019050610d89565b50829750879550505050505092915050565b610ddc8161128c565b82525050565b610deb8161128c565b82525050565b6000610dfc82611191565b610e0681856111c5565b9350610e168185602086016112ad565b610e1f8161145f565b840191505092915050565b6000610e3582611191565b610e3f81856111d6565b9350610e4f8185602086016112ad565b610e588161145f565b840191505092915050565b6000610e70602e836111d6565b9150610e7b82611470565b604082019050919050565b6000610e936000836111ba565b9150610e9e826114bf565b600082019050919050565b6000610eb6602b836111d6565b9150610ec1826114c2565b604082019050919050565b6000610ed96023836111d6565b9150610ee482611511565b604082019050919050565b6000608083016000830151610f076000860182610d40565b5060208301518482036020860152610f1f8282610df1565b9150506040830151610f346040860182610f52565b506060830151610f476060860182610dd3565b508091505092915050565b610f5b81611282565b82525050565b610f6a81611282565b82525050565b6000610f7b82610e86565b9150819050919050565b60006020820190508181036000830152610f9f8184610d5e565b905092915050565b60006020820190508181036000830152610fc18184610e2a565b905092915050565b60006040820190508181036000830152610fe38185610e2a565b9050610ff26020830184610d4f565b9392505050565b600060608201905081810360008301526110138186610e2a565b90506110226020830185610d4f565b61102f6040830184610f61565b949350505050565b600060408201905081810360008301526110518185610e2a565b90506110606020830184610f61565b9392505050565b6000602082019050818103600083015261108081610e63565b9050919050565b600060208201905081810360008301526110a081610ea9565b9050919050565b600060208201905081810360008301526110c081610ecc565b9050919050565b60006020820190506110dc6000830184610f61565b92915050565b60006060820190506110f76000830186610f61565b81810360208301526111098185610e2a565b90506111186040830184610de2565b949350505050565b600061112a61113b565b90506111368282611312565b919050565b6000604051905090565b600067ffffffffffffffff8211156111605761115f611430565b5b6111698261145f565b9050602081019050919050565b6000819050602082019050919050565b600081519050919050565b600081519050919050565b6000602082019050919050565b600082825260208201905092915050565b600081905092915050565b600082825260208201905092915050565b600082825260208201905092915050565b60006111f282611282565b91506111fd83611282565b9250827fffffffffffffffffffffffffffffffffffffffffffffffffffffffffffffffff0382111561123257611231611374565b5b828201905092915050565b600061124882611262565b9050919050565b600081905061125d82611560565b919050565b600073ffffffffffffffffffffffffffffffffffffffff82169050919050565b6000819050919050565b60006112978261124f565b9050919050565b82818337600083830152505050565b60005b838110156112cb5780820151818401526020810190506112b0565b838111156112da576000848401525b50505050565b600060028204905060018216806112f857607f821691505b6020821081141561130c5761130b611401565b5b50919050565b61131b8261145f565b810181811067ffffffffffffffff8211171561133a57611339611430565b5b80604052505050565b600061134e82611282565b915061135983611282565b925082611369576113686113a3565b5b828206905092915050565b7f4e487b7100000000000000000000000000000000000000000000000000000000600052601160045260246000fd5b7f4e487b7100000000000000000000000000000000000000000000000000000000600052601260045260246000fd5b7f4e487b7100000000000000000000000000000000000000000000000000000000600052602160045260246000fd5b7f4e487b7100000000000000000000000000000000000000000000000000000000600052602260045260246000fd5b7f4e487b7100000000000000000000000000000000000000000000000000000000600052604160045260246000fd5b6000601f19601f8301169050919050565b7f54686520636f6e747261637420646f65736e277420686176652074686174206160008201527f6d6f756e74206f66206574686572000000000000000000000000000000000000602082015250565b50565b7f4661696c20746f2077697468726f7720746865206d6f6e65792066726f6d207460008201527f686520636f6e7472616374000000000000000000000000000000000000000000602082015250565b7f57616974203330207365636f6e6473206265666f726520776176696e6720616760008201527f61696e0000000000000000000000000000000000000000000000000000000000602082015250565b60028110611571576115706113d2565b5b50565b61157d8161123d565b811461158857600080fd5b5056fe746865206164647265737320257320686173202564206e756d626572206f66207761766573a2646970667358221220947aa017140bcd32637c0650acc4f9d5b60e983489e7307315a9462b818af7d864736f6c63430008040033",
  "linkReferences": {},
  "deployedLinkReferences": {}
}